:100000000C94CC010C94A03C0C94D13C0C94023D7B
:100010000C94333D0C94643D0C94953D0C94C63D7A
:100020000C94F73D0C94F9010C94F9010C94F9012E
:100030000C94F9010C94F9010C94F9010C94D6215B
:100040000C94F9010C94F9010C94F9010C94F90148
:100050000C94F9010C94F9010C94F9010C94F045FD
:100060000C94F9010C9465370C94A5370C94F901A4
:100070000C94F9010C94F9010C94F9010C94F90118
:100080000C94F9010C94F9010C94F9010C94F90108
:100090000C94F7370C9437380C94F9010C94B03267
:1000A0000C94F9010C9403220C94F9010C94F901BD
:1000B0000C94F9010C94F9010C9430220C94F90180
:1000C0000C94F9010C94F9010C94F9010C94893801
:1000D0000C94C9380C94F9010C94F9010C94F901B1
:1000E0000C94F901084AD73B3BCE016E84BCBFFD9E
:1000F000C12F3D6C74319ABD56833DDA3D00C77FF8
:1001000011BED9E4BB4C3E916BAAAABE0000008090
:100110003F05A84CCDB2D44EB93836A9020C50B91F
:10012000918688083CA6AAAA2ABE000000803F202B
:10013000002A00496E697420416363656C000A6798
:1001400079726F20646964206E6F7420636F6E76BD
:10015000657267653A20646966663D25662064704D
:10016000730A002A00496E6974204779726F006E25
:10017000616E00696E660000002100240027002ADD
:10018000002D003000330001010000040107010AC6
:100190000100002200250028002B002E0031003431
:1001A0000002010000050108010B010000200023EE
:1001B00000260029002C002F00320000010000035F
:1001C00001060109010505050507050808080802DB
:1001D0000202020A0A0808040404040101010101E0
:1001E0000101010303030303030303040707070CCF
:1001F0000C0C0C0C0C0C0C02020202060606060685
:100200000606060B0B0B0B0B0B0B0B010210202031
:10021000080810204010204080020102010804025A
:1002200001010204081020408080402010080402D0
:100230000180040201804020100804020108040229
:10024000010102040810204080010204081020402F
:10025000800000090A02080B0C0D070603040100C8
:10026000000000000000000000000000000000008E
:100270000000000000000000000000000011100F4E
:10028000000000000000000000000000000000006E
:100290000000000000000000407A10F35A00A07235
:1002A0004E18090010A5D4E80000E87648170000B1
:1002B000E40B54020000CA9A3B000000E1F505007F
:1002C0000080969800000040420F000000A08601C8
:1002D000000000102700000000E803000000006498
:1002E00000000000000A0000000000010000000003
:1002F000002C76D888DC674F0823DFC1DFAE59E1D8
:10030000B1B796E5E3E453C63AE651997696E8E646
:10031000C28426EB898C9B62ED407C6FFCEFBC9C19
:100320009F40F2BAA56FA5F490055A2AF75C936B2B
:100330006CF9676DC11BFCE0E40D47FEF520E6B5E6
:1003400000D0ED902E0300943577050080841E08C0
:100350000000204E0A000000C80C333333330F98DE
:100360006E12831141EF8D2114893BE65516CFFEA5
:10037000E6DB18D1844B381BF77C1D901DA4BBE431
:1003800024203284725E228100C9F124ECA1E53D73
:100390002700E332433A3C3A11241FBECFEFD1E2AB
:1003A000DEBFCDBF00E00CBF16E0A0E0B2E0E6E6A5
:1003B000FFE900E00BBF02C007900D92AE3DB10710
:1003C000D9F71BBE1BE0AEEDB6E001C01D92A33114
:1003D000B107E1F713E0C6E9D3E004C02297FE01BC
:1003E0000E94A24FC239D107C9F70E944B4B0C940F
:1003F000A64F0C9400000F931F93CF93DF93689F39
:100400008001699F100D789F100D1124C8010E9472
:100410001702EC01009729F060E070E0A8010E944B
:10042000FC03CE01DF91CF911F910F910895CF93DF
:10043000DF93BC018230910510F462E070E0A0917E
:10044000110BB091120BED01E0E0F0E040E050E064
:1004500021C0888199818617970769F48A819B81D9
:10046000309719F09383828304C09093120B80938A
:10047000110BFE0134C06817790738F44115510596
:1004800019F08417950708F4AC01FE018A819B815D
:100490009C01E9012097E9F641155105A9F1CA012E
:1004A000861B970B049708F4BA01E0E0F0E02AC03D
:1004B0008D919C91119784179507F9F4641775072E
:1004C00081F412968D919C911397309719F0938334
:1004D000828304C09093120B8093110BFD0132961E
:1004E0004CC0CA01861B970BFD01E80FF91F6193F1
:1004F000719302978D939C9340C0FD0182819381FB
:100500009C01D9011097A1F680910F0B9091100BCF
:10051000892B41F480915B0590915C059093100BC1
:1005200080930F0B40915D0550915E05411551057B
:1005300041F44DB75EB78091590590915A05481B1B
:10054000590B20910F0B3091100BCA01821B930B9A
:100550008617970780F0AB014E5F5F4F84179507B2
:1005600050F0420F531F5093100B40930F0BF901A3
:100570006193719302C0E0E0F0E0CF01DF91CF9191
:100580000895CF93DF93009709F450C0EC012297B0
:100590001B821A82A091110BB091120B109709F1D6
:1005A00040E050E0AC17BD0708F1BB83AA83FE0111
:1005B00021913191E20FF31FAE17BF0779F48D91AE
:1005C0009C911197280F391F2E5F3F4F3983288345
:1005D00012968D919C9113979B838A8341155105A7
:1005E00071F4D093120BC093110B20C012968D9111
:1005F0009C911397AD01009711F0DC01D3CFFA0164
:10060000D383C28321913191E20FF31FCE17DF070D
:1006100069F488819981280F391F2E5F3F4FFA01B5
:10062000318320838A819B8193838283DF91CF9161
:100630000895283008F027E03327DA01990F311D9B
:1006400087FD916000966105710539F432602E5F77
:100650003D9330E32A95E1F708959F3F30F08038CD
:100660007105610509F03C5F3C5F3D93913008F0F6
:100670008068911DDF93CF931F930F93FF92EF92AA
:10068000192F987F9695E92F96959695E90FFF2754
:10069000EF50FD4F99273327EE24FF24A701E701F0
:1006A00005900894079428F4360FE71EF81E491F9A
:1006B000511D660F771F881F991F0694A1F705909B
:1006C000079428F4E70EF81E491F561FC11D770F27
:1006D000881F991F661F0694A1F70590079428F4B8
:1006E000F80E491F561FC71FD11D880F991F661F7F
:1006F000771F0694A1F70590079420F4490F561F21
:10070000C71FD81F990F661F771F881F0694A9F768
:1007100084911095177041F0D695C79557954795D8
:10072000F794E7941A95C1F7E7E9F2E06894159019
:10073000159135916591959105907FE27395E1183A
:10074000F10A430B560BC90BD009C0F7E10CF11E9F
:10075000431F561FC91FD01D7EF4703311F48A95B4
:10076000E6CFE894015030F0080F0AF40027021792
:1007700008F4202F2395022F7A3328F079E37D9314
:100780002A95E9F710C07D932A9589F606949795E6
:100790006795379517951794E118F10A430B560B97
:1007A000C90BD00998F023957E9173957A3308F0A0
:1007B00070E37C932013B8F77E9170617D9330F0E5
:1007C000839571E37D9370E32A95E1F71124EF900F
:1007D000FF900F911F91CF91DF91992787FD909501
:1007E0000895FC010590615070400110D8F7809584
:1007F00090958E0F9F1F0895DC0101C06D934150AD
:100800005040E0F70895FC016150704001900110E4
:10081000D8F7809590958E0F9F1F0895FA01AA270B
:10082000283051F1203181F1E8946F936E7F6E5F33
:100830007F4F8F4F9F4FAF4FB1E03ED0B4E03CD0E1
:10084000670F781F891F9A1FA11D680F791F8A1FC4
:10085000911DA11D6A0F711D811D911DA11D20D02B
:1008600009F468943F912AE0269F11243019305DE5
:100870003193DEF6CF010895462F4770405D4193D6
:10088000B3E00FD0C9F7F6CF462F4F70405D4A3323
:1008900018F0495D31FD4052419302D0A9F7EACFEB
:1008A000B4E0A6959795879577956795BA95C9F71A
:1008B00000976105710508959B01AC010A2E06940D
:1008C0005795479537952795BA95C9F7620F731FC6
:1008D000841F951FA01D08952091260130912701A6
:1008E0008091E0069091E1062817390740F4205CDA
:1008F0003346A901481B590B20543C4903C0A901A8
:10090000481B590B8FE14134580718F01092DF064D
:1009100014C08091DF06883080F4E82FF0E0EE0FFD
:10092000FF1FE15AFA4F518340838F5F8093DF06A8
:10093000883019F481E08093DE063093E10620933D
:10094000E0060895FC018BEB95E091838083089588
:1009500083E04438580718F444E853E006C088E0C0
:100960004533580710F044E358E0440F551F6430F6
:1009700071F1653050F46130D9F06130A0F062302F
:10098000E1F0633009F040C01DC0673079F1683094
:1009900028F4653009F16630B9F523C0693059F1A2
:1009A0006A3091F52DC050938B0040938A000895D2
:1009B000509389004093880008955093AD00409370
:1009C000AC0008955093AB004093AA000895509353
:1009D000A9004093A800089550939D0040939C0067
:1009E000089550939B0040939A0008955093990066
:1009F00040939800089550932B0140932A01089545
:100A000050932D0140932C010895643079F16530A5
:100A100048F46130E1F06130A8F06230E9F0633011
:100A200071F41FC0673089F1683028F4653019F11E
:100A3000663029F425C0693069F16A3081F120E01F
:100A400030E031C020918A0030918B002CC0209181
:100A500088003091890027C02091AC003091AD0012
:100A600022C02091AA003091AB001DC02091A800A7
:100A70003091A90018C020919C0030919D0013C0B6
:100A800020919A0030919B000EC0209198003091E7
:100A9000990009C020912A0130912B0104C02091B6
:100AA0002C0130912D0136952795C90108956430A8
:100AB00061F1653050F46130D1F06130A0F0623006
:100AC000E1F0633009F040C01CC0673061F168306C
:100AD00028F4653001F16630B9F521C0693049F17B
:100AE0006A3091F52CC080918000806203C08091B3
:100AF000800080688093800008958091A0008860C5
:100B000007C08091A000806203C08091A00080682F
:100B10008093A000089580919000886007C0809124
:100B20009000806203C08091900080688093900064
:100B30000895809120018062809320010895809122
:100B400020018860809320010895643061F1653050
:100B500050F46130D1F06130A0F06230E1F06330E8
:100B600009F040C01CC0673061F1683028F465307E
:100B700001F16630B9F521C0693049F16A3091F56B
:100B80002CC0809180008F7D03C0809180008F7782
:100B90008093800008958091A000877F07C0809196
:100BA000A0008F7D03C08091A0008F778093A0006C
:100BB000089580919000877F07C0809190008F7D7D
:100BC00003C0809190008F7780939000089580916A
:100BD00020018F7D80932001089580912001877FDF
:100BE000809320010895A62FB0E0FD013196EE0F0D
:100BF000FF1FE80FF91F80819181009711F0BC0160
:100C000019C0F894AA0FBB1FA15ABA4F6D917C91DD
:100C100078947695679583E06438780718F464E8EB
:100C200073E006C088E06533780710F064E378E08D
:100C30001092DE06CB0108958091DE060895089596
:100C4000089508950895EF92FF920F931F937A01EC
:100C50008B0140E050E060E874E88EE190E00E9493
:100C60004F4FB901D801C70183709070A070B07068
:100C70000097A105B10521F03093870020938600ED
:100C8000D801C7018C719070A070B0700097A10559
:100C9000B10521F07093A7006093A6008E2D807E91
:100CA00021F070939700609396001F910F91FF9031
:100CB000EF900895FC0180E0138212828F5F3296DC
:100CC0008830D1F70895AF92BF92CF92DF92EF9222
:100CD000FF920F931F935B018CE061E00E945B47E2
:100CE0008BE061E00E945B47A2E0CA2EC0928000C8
:100CF000FAE1DF2ED0928100E0E4EE2EECE9FE2E48
:100D0000F0928700E09286000FEF1FEF10938900AA
:100D10000093880010938B0000938A0088E061E0C4
:100D20000E945B4787E061E00E945B4786E061E0EC
:100D30000E945B47C092A000D092A1001093A9002E
:100D40000093A8001093AB000093AA001093AD008D
:100D50000093AC00F092A700E092A60083E061E06F
:100D60000E945B4782E061E00E945B4785E061E0B2
:100D70000E945B47C0929000D0929100109399001E
:100D80000093980010939B0000939A0010939D008D
:100D900000939C00F0929700E092960080E360E060
:100DA0000E945B478DE261E00E945B478CE261E05C
:100DB0000E945B4783E0809320018AE580932101B4
:100DC000F0922901E0922801C50162E070E04CE652
:100DD00054E00E94C521E3E7F0E0808180628083D7
:100DE0001F910F91FF90EF90DF90CF90BF90AF9049
:100DF00008952F923F924F925F926F927F928F92BF
:100E00009F92AF92BF92CF92DF92EF92FF920F9399
:100E10001F93CF93DF93EC011B01E881F9810280DE
:100E2000F381E02DCE011995E881F9810480F581E7
:100E3000E02DCE0119957B018C01E881F9810680B6
:100E4000F781E02DCE01199564E170E080E090E03B
:100E5000F1011995C801B70120E030E040E050E011
:100E60000E94674C8823C9F28A818823B1F200E08E
:100E700010E0E881F9810280F381E02DCE0119951F
:100E80008A818823B1F3E881F9810480F581E02D1E
:100E9000CE0119953B014C01E881F9810680F7816B
:100EA000E02DCE0119955B016C0164E670E080E0F5
:100EB00090E0F10119950F5F1F4F0A301105C9F637
:100EC00044245524E881F9810280F381E02DCE018C
:100ED00019958A818823B1F3C401B3012DEC3CEC50
:100EE0004CE45FE30E944C4E7B018C01E881F98168
:100EF0000480F581E02DCE0119952DEC3CEC4CE4FD
:100F00005EE30E944C4E9B01AC01C801B7010E94F8
:100F1000A14B3B014C01C601B5012DEC3CEC4CE46E
:100F20005FE30E944C4E7B018C01E881F9810680D1
:100F3000F781E02DCE0119952DEC3CEC4CE45EE3FD
:100F40000E944C4E9B01AC01C801B7010E94A14B0D
:100F50005B016C0164E670E080E090E0F1011995BE
:100F60000894411C511C85E04816510409F0AACF91
:100F70006C867D868E869F86CE010C960E9404200C
:100F8000C601B50120E030E040E251E40E946E4C21
:100F9000688779878A879B87CE0108960E940420FC
:100FA000DF91CF911F910F91FF90EF90DF90CF9045
:100FB000BF90AF909F908F907F906F905F904F9079
:100FC0003F902F900895FF920F931F93CF93DF933D
:100FD000EC01142F052FF62E2E8DE22FF0E0EE0FF0
:100FE000FF1FEE0FFF1FE80FF91F812F902FAF2D6E
:100FF000B72F82839383A483B5832F5F2E8F2730EF
:1010000008F01E8E212F302F4F2D572FB901CA0106
:10101000DF91CF911F910F91FF90089587E0089580
:101020002F923F924F925F926F927F928F929F92F8
:10103000AF92BF92CF92DF92EF92FF920F931F93E6
:10104000DF93CF9300D000D0CDB7DEB78C0101582D
:101050001F4F89589F4FFC0161917191FE83ED8371
:1010600080E090E0982F872F762F66270E94074D0B
:101070009B01AC01F80160817181828193810E94A2
:10108000A04B3B014C01ED81FE816081718180E0CC
:1010900090E00E94074D9B01AC01C401B3010E9486
:1010A0004C4E20E030E040E054E30E944C4E1B01E7
:1010B0002C018D819E8108979E838D83FC01608128
:1010C000718180E090E00E94074D20E030E040E830
:1010D00057E40E944C4E7B018C018D819E810496C9
:1010E0009E838D83FC016081718180E090E00E948D
:1010F000074DA40193010E944C4E20E030E040E0F7
:101100005CE30E944C4E9B01AC01C801B7010E94F8
:10111000A14B69837A838B839C838D819E81069703
:101120009E838D83FC016081718180E090E00E944C
:10113000074D20E030E040E057E40E944C4E7B0138
:101140008C018D819E810496FC0160817181E35741
:10115000F040FE83ED8380E090E00E94074DA40103
:1011600093010E944C4E20E030E040E85BE30E9497
:101170004C4E9B01AC01C801B7010E94A14B5B0121
:101180006C01C201B10120E030E040E050E00E947B
:10119000674C88230CF040C0C201B101A20191014B
:1011A0000E944C4E7B018C01C401B301A401930148
:1011B0000E944C4E20E030E040E050E30E944C4E54
:1011C0009B01AC01C201B1010E94A04B1B012C018B
:1011D000C801B70120E030E040E250E40E944C4EEC
:1011E0009B01AC0169817A818B819C810E94A04B1B
:1011F00069837A838B839C83C801B70120E030E048
:1012000040EA5FE30E944C4E9B01AC01C601B50170
:101210000E94A04B5B016C018D819E8185589F4F80
:101220009E838D83C601B501ED81FE8120813181D0
:10123000428153810E944C4E20E030E040E055E373
:101240000E944C4E29813A814B815C810E94A04BC7
:1012500020E030E040E058E30E944C4E7B018C01DE
:101260008D819E814C979E838D83C201B10120E0C8
:1012700030E04AEF54E40E94A14BED81FE8161937E
:10128000719381939193FE83ED83C701D80180838D
:101290009183A283B38326960FB6F894DEBF0FBE68
:1012A000CDBFCF91DF911F910F91FF90EF90DF9015
:1012B000CF90BF90AF909F908F907F906F905F90F6
:1012C0004F903F902F900895FC01ED59FF4F2081E2
:1012D000318142815381B901CA010895FC01E15A6B
:1012E000FF4F608171818281938120E030E040E294
:1012F00051E40E946E4C0895FC01E959FF4F608152
:101300007181828193810895FC01E559FF4F6081CD
:1013100071818281938108957F928F929F92AF9283
:10132000BF92CF92DF92EF92FF920F931F93CF93D2
:10133000DF93EC017090F206772009F485C0F894F1
:101340006091E2067091E3068091E4069091E506D3
:101350001092E2061092E3061092E4061092E5065F
:10136000A090E606B090E706C090E806D090E906A7
:101370001092E6061092E7061092E8061092E9062F
:101380009090EA061092EA068090EB061092EB0627
:101390001092F20678949920D1F0C558DF4F0E9440
:1013A000074D7B018C01692D70E0882777FD8095C2
:1013B000982F0E94094D9B01AC01C801B7010E9402
:1013C0006E4C688379838A839B83CB57D040882077
:1013D000E1F0C158DF4FC601B5010E94074D7B0106
:1013E0008C01682D70E0882777FD8095982F0E94EA
:1013F000094D9B01AC01C801B7010E946E4C688386
:1014000079838A839B83CF57D0409F82C558DF4F13
:10141000688179818A819B810E94D64C6497688318
:1014200079838A839B83C756D040C158DF4F688138
:1014300079818A819B810E94D64C649768837983E5
:101440008A839B83CB56D0401092F106CE010E9436
:101450001008772011F480E007C00E9438466B83A3
:101460007C838D839E8381E0DF91CF911F910F91CB
:10147000FF90EF90DF90CF90BF90AF909F908F90B4
:101480007F9008951F93182F88E260E00E94F5472F
:101490001EBD0DB407FEFDCF8EB588E261E00E944F
:1014A000F5471F910895EF92FF920F931F9388E2E3
:1014B00060E00E94F5471EBC0DB407FEFDCF8EB55F
:1014C0001EBC0DB407FEFDCF0EB51EBC0DB407FE4D
:1014D000FDCF1EB51EBC0DB407FEFDCFEEB488E2F5
:1014E00061E00E94F547202F30E040E050E0A90184
:1014F00033272227812F90E0A0E0B0E0BA2FA92F58
:10150000982F8827282B392B4A2B5B2BFF2400E0B0
:1015100010E02E293F29402B512BB901CA011F9100
:101520000F91FF90EF900895EF92FF920F931F930A
:101530009B01AC018091F106882309F0A7C080913E
:10154000ED069091EE06A091EF06B091F0067901BC
:101550008A01E81AF90A0A0B1B0BD801C7018C5142
:101560009542A040B04008F491C02093ED0630931E
:10157000EE064093EF065093F0068091EC06882328
:10158000E1F5E090E606F090E7060091E80610919C
:10159000E9060E94530AE60EF71E081F191FE09283
:1015A000E606F092E7060093E8061093E9068091BC
:1015B000EB068F5F8093EB068091EB068032B9F4E7
:1015C0008091E6069091E706A091E806B091E906C1
:1015D000B695A795979587958093E6069093E7062D
:1015E000A093E806B093E90680E18093EB06809132
:1015F000EC068F5F8093EC0646C0E090E206F09028
:10160000E3060091E4061091E5060E94530AE60EF7
:10161000F71E081F191FE092E206F092E3060093FE
:10162000E4061093E5068091EA068F5F8093EA0650
:101630008091EA068038B9F48091E2069091E30641
:10164000A091E406B091E506B695A7959795879584
:101650008093E2069093E306A093E406B093E50638
:1016600080E48093EA068091EC068F5F8093EC061D
:1016700091E09093F206853031F488E50E94420AA9
:101680001092EC0603C088E40E94420A1F910F9159
:10169000FF90EF9008950F931F93182F88E260E05A
:1016A0000E94F5471EBD0DB407FEFDCF8EB51EBCD2
:1016B0000DB407FEFDCF1EB51EBC0DB407FEFDCF59
:1016C0000EB588E261E00E94F547912F80E010E0BE
:1016D000082B192BC8011F910F9108950F931F9389
:1016E000CF93DF93EC018B01DB01ED91FC91048042
:1016F000F581E02DCB01199588E261E00E945B47FE
:1017000088E261E00E94F54761E070E080E090E0EF
:101710000E946C468EE10E94420A64E070E080E024
:1017200090E00E946C4682EA0E944B0BC159DF4F49
:101730008993999384EA0E944B0B8993999386EA43
:101740000E944B0B8993999388EA0E944B0B8993D3
:1017500099938AEA0E944B0B899399938CEA0E9491
:101760004B0B9983888388E50E94420A0E94464673
:101770006093ED067093EE068093EF069093F0066B
:101780001092EC066A9780E090E0A0E0B0E08993C8
:101790009993A993B99388839983AA83BB83C356EA
:1017A000D0401092E2061092E3061092E4061092E6
:1017B000E5061092E6061092E7061092E8061092EF
:1017C000E9061092EA061092EB06D801ED91FC9121
:1017D0000680F781E02DC8011995D801ED91FC91A3
:1017E0000190F081E02DC80164E97AE019958091BB
:1017F000F2068823E1F381E08A83DF91CF911F9184
:101800000F910895FC01708B678708954F925F9246
:101810006F927F928F929F92AF92BF92CF92DF9200
:10182000EF92FF920F931F93DF93CF93CDB7DEB765
:101830002C970FB6F894DEBF0FBECDBF2C012AEA5D
:1018400030E0420E531ED2018C91E6E5FFEF4E0EC2
:101850005F1E882309F424C1D2011E968C9188232F
:1018600031F50E943846820104551F4FF80120814E
:10187000318142815381621773078407950708F409
:101880000FC1D201ED91FC910488F589E02DC201D0
:101890001995882361F40E94384668517C4F8F4F18
:1018A0009F4FF8016083718382839383F9C0D201D3
:1018B000ED91FC910288F389E02DC20119958823EE
:1018C000B1F40E943846ECEAF0E04E0E5F1E68511B
:1018D0007C4F8F4F9F4FD2016D937D938D939C933F
:1018E00013978BE797E060E00E94A832D9C0F2011D
:1018F00064817581882777FD8095982F0E94094D16
:10190000F201E256FF4F20813181428153810E94D2
:101910004C4E0E94D64CD20115967C936E93149730
:1019200016966D917C911797882777FD8095982F53
:101930000E94094DF201EE55FF4F20813181428115
:1019400053810E944C4E0E94D64CF20177836683ED
:1019500060857185882777FD8095982F0E94094DB5
:10196000F201EA55FF4F20813181428153810E946B
:101970004C4E0E94D64CD20119967C936E931897C8
:101980000E944646F2016287738784879587668145
:101990007781882777FD8095982F0E94094D5B01FC
:1019A0006C01D20118966D917C911997882777FD6B
:1019B0008095982F0E94094D7B018C01F201648172
:1019C0007581882777FD8095982F0E94094D69833E
:1019D0007A838B839C83AD82BE82CF82D886E98650
:1019E000FA860B871C87D20112968D919C911397D2
:1019F000039731F4CE01019662E070E00E94AE3FA1
:101A0000F20167857089CE0101960E94AE3FD20136
:101A10005996ED90FD900D911C915C9769817A81AA
:101A20008B819C8151962D913D914D915C91549764
:101A30000E94A14B5B016C016D817E818F81988535
:101A4000F201258936894789508D0E94A14B3B01BF
:101A50004C01C801B70129853A854B855C850E94F8
:101A6000A14B7B018C01C601B5010E94D64CD2016D
:101A700015967C936E931497C401B3010E94D64CC3
:101A8000F20177836683C801B7010E94D64CD20168
:101A900019967C936E93189781E01E968C9301C0E3
:101AA00080E02C960FB6F894DEBF0FBECDBFCF916D
:101AB000DF911F910F91FF90EF90DF90CF90BF903B
:101AC000AF909F908F907F906F905F904F90089510
:101AD000EF92FF920F931F93DF93CF9300D000D02C
:101AE000CDB7DEB77C018BE797E06EE143E026E0FF
:101AF0008E010F5F1F4F0E944734882319F0F701B2
:101B0000168645C0998180E02A8130E0282B392B48
:101B1000F701828193814B815C81ED81FE81039786
:101B200069F4942F80E0652F70E0682B792B9E2F4D
:101B300080E04F2F50E0482B592B0CC0942F80E0B1
:101B4000452F50E0482B592B9E2F80E06F2F70E0DF
:101B5000682B792BF0EF20303F07C9F080EF403041
:101B60005807A9F0E0EF60307E0789F088279927B1
:101B7000821B930BF70195838483578346838827C1
:101B80009927861B970B9187808781E001C080E0B1
:101B900026960FB6F894DEBF0FBECDBFCF91DF9172
:101BA0001F910F91FF90EF9008950F931F93CF9384
:101BB000DF93EC01262F8A018BE797E06EE1422F3D
:101BC00021E00E944734882311F481E002C01E8680
:101BD00080E0DF91CF911F910F910895CF93DF9314
:101BE000EC01362F242F8BE797E06EE1432F0E9404
:101BF000B634882311F481E002C01E8680E0DF91B4
:101C0000CF9108952F923F924F925F926F927F9261
:101C10008F929F92AF92BF92CF92DF92EF92FF92FC
:101C20000F931F93DF93CF93CDB7DEB763970FB6B4
:101C3000F894DEBF0FBECDBF9B8B8A8B6AE070E04D
:101C400080E090E00E946C468A899B8960E048E7CA
:101C50000E94EE0D882369F00A891B8905551F4FE4
:101C60008A899B8960E0A8010E94D50D882309F02C
:101C7000F1C1AA89BB891E961C92D1C183E090E074
:101C8000EA89FB8993838283F0E6F9830EEF12E001
:101C900069EC72E011C0483109F0C1C182E090E006
:101CA000AA89BB8913969C938E931297B0E2B9834D
:101CB0000BEC12E06BEC72E04A895B8942565F4F95
:101CC00080E090E0A0E0B0E0FA0180839183A283FD
:101CD000B3832A893B892E553F4FF9018083918335
:101CE000A283B383EA88FB88E6EAF0E0EE0EFF1EEB
:101CF000F70180839183A283B38322243324442475
:101D00005524C801A0E0B0E08C839D83AE83BF83DF
:101D1000CB01A0E0B0E088879987AA87BB875D8761
:101D20004C873F872E87F98AE88A0894211C311C4A
:101D30008A899B8960E041E10E94EE0D882309F4C5
:101D4000E8C062E370E080E090E00E946C468A891F
:101D50009B8961E049810E94EE0D882309F4D9C076
:101D60008A899B8962E041E00E94EE0D882309F494
:101D7000D0C076C16AE070E080E090E00E946C46DE
:101D80006C817D818E819F810E94074D7B018C013A
:101D9000AA89BB8914966D917C911597882777FD48
:101DA0008095982F0E94094D9B01AC01C801B70195
:101DB0000E946E4C3B014C01E89497F8EA89FB893C
:101DC000C680D780208531853B832A83C401B30137
:101DD00023E333E343E35FE30E94414E18160CF024
:101DE00098C0C401B30126E636E646EA5FE30E94E6
:101DF000674C88230CF08DC0B601882777FD80954D
:101E0000982F0E94094D9B01AC01C801B7010E94A7
:101E10006E4C5B016C01E894D7F8C601B50123E371
:101E200033E343E35FE30E94414E18160CF071C0A8
:101E3000C601B50126E636E646EA5FE30E94674C36
:101E400088230CF066C0688579858A859B850E9409
:101E5000074D7B018C01AA81BB81BD01882777FDDD
:101E60008095982F0E94094D9B01AC01C801B701D4
:101E70000E946E4C7B018C01E89417F9C801B701F0
:101E800023E333E343E35FE30E94414E18160CF073
:101E900040C0C801B70126E636E646EA5FE30E9485
:101EA000674C8823B4F50894411C511CEC85FD85D2
:101EB0006081718182819381A40193010E94A14B71
:101EC000AC85BD856D937D938D939C931397EE8523
:101ED000FF856081718182819381A60195010E94B5
:101EE000A14BAE85BF856D937D938D939C93139786
:101EF000E889F9896081718182819381A8019701C4
:101F00000E94A14BA889B9896D937D938D939C9371
:101F10001397B4E12B16310431F0E5E04E1651046D
:101F20000CF403CF05C0F5E04F1651040CF44AC081
:101F3000B201882777FD8095982F0E94094D7B017B
:101F40008C012EE9C22ED12C2A893B89C20ED31EC8
:101F5000D6016D917D918D919C91A80197010E9470
:101F60006E4CF601608371838283938392EAC92E5B
:101F7000D12C2A893B89C20ED31ED6016D917D9149
:101F80008D919C91A80197010E946E4CF60160838F
:101F900071838283938386EAC82ED12C2A893B8958
:101FA000C20ED31ED6016D917D918D919C91A80199
:101FB00097010E946E4CF601608371838283938344
:101FC00011E01AC02A893B8922563F4F80E090E0F9
:101FD000A0E8BFE3F90181939193A193B193819319
:101FE0009193A193B19380839183A283B383E65AA3
:101FF000F040FB8BEA8B10E0AA89BB89ED91FC9144
:1020000011970488F589E02DCD011995882339F0C1
:10201000EA89FB89E655FF4F81E0808301C010E02B
:10202000812F63960FB6F894DEBF0FBECDBFCF9160
:10203000DF911F910F91FF90EF90DF90CF90BF90B5
:10204000AF909F908F907F906F905F904F903F9058
:102050002F900895D8014C91483709F01CCE0ECE30
:1020600062E370E080E090E00E946C46AA89BB8940
:10207000ED91FC9111970288F389E02DCD0119951E
:10208000882309F446CF76CECF93DF93EC01FC0191
:10209000E555FF4F60E040810E94EE0D882381F0FE
:1020A000CE0161E040E20E94EE0D882349F0CE01AE
:1020B00062E040E00E94EE0D882319F081E001C04B
:1020C00080E0DF91CF910895FC0174AB63AB81E1B7
:1020D00096E09183808308952F923F924F925F9272
:1020E0006F927F928F929F92AF92BF92CF92DF9228
:1020F000EF92FF920F931F93DF93CF93CDB7DEB78D
:10210000A2970FB6F894DEBF0FBECDBF9AA389A3E6
:10211000DC01D396ED91FC91D497A081B181149606
:102120002D913C911597CF01F90119959C838B83D3
:1021300010E01A821982E9A1FAA1E75AFF4FFE8343
:10214000ED8329A13AA1295A3F4F38872F8389A1CE
:102150009AA1885A9F4F9A878987A9A1BAA1A65A9E
:10216000BF4FBC87AB87E9A1FAA1EB58FF4FFE87B1
:10217000ED8729A13AA1205A3F4F388B2F8789A19B
:102180009AA18C599F4F9A8B898BA9A1BAA1A85962
:10219000BF4FBC8BAB8BE9A1FAA1E459FF4FFE8B7B
:1021A000ED8B29A13AA120593F4F388F2F8B89A160
:1021B0009AA18C589F4F9A8F898FA9A1BAA1A25832
:1021C000BF4FBC8FAB8FE9A1FAA1EA58FF4FFE8F3A
:1021D000ED8F29A13AA126583F4F38A32F8F51C127
:1021E000A9A1BAA1D396ED91FC91D497A081B18118
:1021F00016962D913C911797CF01F9011995482F0B
:10220000ED81FE813081323019F1333028F43323EF
:1022100079F0313049F415C0343009F44AC0343013
:1022200038F1353009F453C0AD81BE813C9323C1F0
:10223000ED81FE811082403D09F01DC121E0208327
:102240001AC18D3DA9F7E2E0AD81BE81EC9313C1C7
:10225000803271F7E3E0AD81BE81EC93AF81B88548
:102260008C93E985FA858083AB85BC851C9203C17C
:10227000ED81FE813083AB85BC859C91E9A1FAA1FB
:10228000E90FF11DE05AFF4F40839F5F9C93E98562
:10229000FA852081AF81B8858C91840F8C93820F51
:1022A0008083903209F0E7C03F5FED81FE8130838B
:1022B000E2C0E5E0AD81BE81EC93AF81B8858C9141
:1022C000841709F4D8C0ED81FE811082D4C0AD819D
:1022D000BE811C92E985FA858081841709F0CBC004
:1022E00090E0AD85BE858C91833009F491E0E9A141
:1022F000FAA190A7AF85B8896D917D918D919C9140
:102300002AE030E040E050E00E94114FE9A1FAA13C
:102310006487758786879787A989BA896D917D912A
:102320008D919C910E94114FE9A1FAA1608B718B54
:10233000828B938BEB89FC8980819181A281B3810F
:10234000E9A1FAA1848B958BA68BB78BED89FE89C9
:1023500080819181A281B381E9A1FAA1808F918FBF
:10236000A28FB38FEF89F88D80819181A281B38193
:10237000E9A1FAA1848F958FA68FB78FA98DBA8D09
:102380008C9186A3EB8DFC8D80819181A9A1BAA14E
:1023900095969C938E939497ED8DFE8D808191817F
:1023A000A281B381E9A1FAA180879187A287B3872F
:1023B000AF8DB8A1ED90FD900D911C91C801B701B2
:1023C00020E836E948E950E00E94714F922E832EB2
:1023D000742E652E622F732F842F952F20E839E6F7
:1023E00047E65FEF0E94114F5B016C01AE0CBF1C12
:1023F000C01ED11E692D782D872D962D20E83EEE2A
:1024000046E350E00E94114F3B014C01C601B5016B
:1024100020EA36E841E050E00E94714F522E432EF0
:10242000342E252E622F732F842F952F20E639E727
:102430004EEF5FEF0E94114F7B018C01652D742DD3
:10244000832D922D20E63AEE40E050E00E94114F9D
:10245000E60EF71E081F191FEA0CFB1C0C1D1D1DA4
:10246000E60CF71C081D191DE9A1FAA1E482F5820A
:102470000683178311E029813A812F5F3F4F3A830A
:10248000298389819A81AB81BC818A179B070CF4CF
:10249000A7CE812FA2960FB6F894DEBF0FBECDBF98
:1024A000CF91DF911F910F91FF90EF90DF90CF9030
:1024B000BF90AF909F908F907F906F905F904F9064
:1024C0003F902F9008950F931F938C01FC01A3A9B7
:1024D000B4A9ED91FC9111970284F385E02DCD0113
:1024E0001995F80183A994A960E072E00E948136F1
:1024F000F80183A994A969E172E00E948136F8018C
:1025000016AA15AA055A1F4FF8011192119211929D
:1025100011928F0110820F55104080EB94E0A0E0E3
:10252000B0E0F80183A794A7A5A7B6A71F910F91C4
:102530000895FC012381348145815681B901CA0186
:102540000895FC012781308541855285B901CA0172
:102550000895FC012385348545855685B901CA0156
:102560000895FC012785308941895289B901CA0142
:102570000895FC012389348945895689B901CA0126
:102580000895FC012789308D418D528DB901CA0112
:102590000895FC014787508B618B728B0895FC0175
:1025A000438B548B658B768B0895FC01478B508F42
:1025B000618F728F08950F931F93DF93CF93CDB7E1
:1025C000DEB768970FB6F894DEBF0FBECDBF8C01A3
:1025D000FC01A1ADB2ADED91FC9111970280F381A8
:1025E000E02DCD011995F801A1ADB2ADED91FC91B1
:1025F00011970484F585E02DCD01BE016F5F7F4FFB
:102600001995F801A1ADB2ADED91FC911197048837
:10261000F589E02DCD01BE01635F7F4F1995F8016B
:10262000A1ADB2ADED91FC911197028CF38DE02D2F
:10263000CD011995F80163AB74AB85AB96AB69819D
:102640007A818B819C8123813481458156810E94CE
:10265000A04BF80167A370A781A792A76D817E8127
:102660008F81988527813085418552850E94A04BB6
:10267000F80163A774A785A796A769857A858B85D6
:102680009C8523853485458556850E94A04BF8019D
:1026900067A770AB81AB92AB6D857E858F8598897E
:1026A00027853089418952890E94A04BF801638FA8
:1026B000748F858F968F69897A898B899C89238904
:1026C0003489458956890E94A04BF801678F70A311
:1026D00081A392A36D897E898F89988D2789308DFA
:1026E000418D528D0E94A04BF80163A374A385A372
:1026F00096A381E068960FB6F894DEBF0FBECDBFFB
:10270000CF91DF911F910F910895DC01D996ED9142
:10271000FC91DA97A081B18114962D913C91159787
:10272000CF01F90119950895FC01A1ADB2ADED916C
:10273000FC911197068CF78DE02DCD011995089528
:102740002F923F924F925F926F927F928F929F92C1
:10275000AF92BF92CF92DF92EF92FF920F931F93AF
:10276000DF93CF93CDB7DEB7EC970FB6F894DEBF0B
:102770000FBECDBF4C017CAB6BAB5EAB4DAB64EF22
:1027800071E080E090E02BA93CA9F901199500D0F7
:102790000F920FE917E0ADB7BEB712961C930E93D8
:1027A000119783E391E014969C938E9313970E9464
:1027B0005D2280E090E0AAEFB3E4F4018787908B7C
:1027C000A18BB28B838B948BA58BB68B878B908FD1
:1027D000A18FB28FFE013D9688E1DF011D928A959F
:1027E000E9F71EA21DA20F900F900F900F90FCAF63
:1027F000EBAF09AF1AAFF401A1ADB2ADED91FC9111
:1028000011970280F381E02DCD011995F401A1AD5E
:10281000B2ADED91FC9111970488F589E02DCD01C1
:10282000BE016F5F7F4F1995F40187859089A1895B
:10283000B289898F9A8FAB8FBC8F89819A81AB8146
:10284000BC818787908BA18BB28B83899489A58962
:10285000B6898D8F9E8FAF8FB8A38D819E81AF81FA
:10286000B885838B948BA58BB68BD40157968D91AD
:102870009D910D90BC91A02D8FA798ABA9ABBAAB41
:1028800089A39AA3ABA3BCA389859A85AB85BC8594
:10289000878B908FA18FB28F6624772464E170E0DC
:1028A00080E090E02BA93CA9F9011995F401A1ADB4
:1028B000B2ADED91FC9111970280F381E02DCD0135
:1028C0001995F401A1ADB2ADED91FC911197048879
:1028D000F589E02DCD01BE016F5F7F4F19955E0137
:1028E0000894A11CB11C6401D6011F966D917D91C5
:1028F0008D919C91529726E636E646E65FE30E946C
:102900004C4E7B018C01F501619171918191919106
:102910005F012DEC3CEC4CEC5DE30E944C4E9B01C6
:10292000AC01C801B7010E94A14BD6011F966D935F
:102930007D938D939C935297E4E0F0E0CE0EDF1EE2
:102940002BAD3CADA216B30679F68DA19EA10597DD
:1029500011F500D00F92E9ADADB7BEB71196EC936B
:102960001197FAAD1296FC93129721E331E0149679
:102970003C932E9313970E945D220F900F900F901F
:102980000F908DA99EA9892BA9F081E0ADA9BEA9C0
:10299000FD0119950FC0EDA1FEA13A975CF02DA99C
:1029A0003EA9232B29F080E0ADA9BEA9FD01199510
:1029B0001EA21DA2EDA1FEA13196FEA3EDA30894D7
:1029C000611C711CF2E36F16710409F067CFD4012A
:1029D00057966D917D918D919C915A9720E030E0B2
:1029E00040E85FE30E94A14B2B013C01F401678B9F
:1029F000708F818F928F898D9A8DAB8DBC8D8BA7B7
:102A00009CA7ADA7BEA7E784F088018912898D8DA8
:102A10009E8DAF8DB8A18FA398A7A9A7BAA7A388A9
:102A2000B488C588D688C801B701A60195010E945F
:102A3000414E18161CF0D601C50102C0D801C701CD
:102A40008FAB98AF1D016FA978ADCD01A3019201A5
:102A50000E94414E18162CF0D301C2014FAA98AF24
:102A60001D0164EF71E080E090E0ABA9BCA9FD011D
:102A700019956BA57CA58DA59EA5A80197010E941F
:102A8000A04B7B018C01E89417F96FA178A589A56B
:102A90009AA5A60195010E94A04B9B01AC015F770E
:102AA000C801B7010E94A14B7B018C016FA578A9D9
:102AB00089A99AA9A30192010E94A04B9B01AC0194
:102AC0005F77C801B7010E94A14B20E030E040E8E9
:102AD00050E40E94414E18160CF48DCE6FA978ADCB
:102AE000C10120E030E04AE753E40E94414E18164D
:102AF0000CF481CE00D00F928FE997E0EDB7FEB7CE
:102B0000928381838FE291E0948383830E945D228C
:102B10000F900F900F900F90EC960FB6F894DEBFC9
:102B20000FBECDBFCF91DF911F910F91FF90EF901E
:102B3000DF90CF90BF90AF909F908F907F906F90DD
:102B40005F904F903F902F9008950F931F938C01AB
:102B5000DC01ED91FC9102A0F3A1E02D1995C801D3
:102B600003960E9404201F910F91089503960E94DE
:102B7000042008950F931F938C01DC01ED91FC91CB
:102B800004A0F5A1E02D1995C80103960E94042028
:102B90001F910F9108952F923F924F925F926F92E3
:102BA0007F928F929F92AF92BF92CF92DF92EF92DD
:102BB000FF920F931F93DF93CF93CDB7DEB7C5542A
:102BC000D0400FB6F894DEBF0FBECDBF99AB88AB37
:102BD0007BAB6AAB5DAB4CAB64E670E080E090E051
:102BE0002AA93BA9F901199500D00F928FE997E026
:102BF000ADB7BEB712969C938E93119785E691E080
:102C000014969C938E9313970E945D2200E010E02F
:102C10000F900F900F900F907E010894E11CF11C13
:102C2000ECA9FDA9309711F081E0199564E170E0FD
:102C300080E090E02AA93BA9F9011995E8A9F9A932
:102C4000A1ADB2ADED91FC9111970280F381E02D21
:102C5000CD011995E8A9F9A9A1ADB2ADED91FC910D
:102C600011970484F585E02DCD01B70119952CA9A4
:102C70003DA92115310519F080E0F901199564E1AC
:102C800070E080E090E0AAA9BBA9FD0119950F5F53
:102C90001F4F0931110521F60F2EF0E06F2EF0E0E5
:102CA0007F2EF0E08F2EF0E09F2EF02D1FA61EA6A7
:102CB0001AAE1BAE1CAE1DAE1EAE1FAE21961FAED1
:102CC000219722961FAE229769A67AA68BA69CA66C
:102CD0001EAA1FAA18AE19AE69A27AA28BA29CA244
:102CE0006DA27EA28FA298A680E090E0A0E0B0E066
:102CF0008D8B9E8BAF8BB88F898B9A8BAB8BBC8B5C
:102D00008D879E87AF87B88B00D00F92EFE9F7E0F1
:102D1000ADB7BEB71296FC93EE93119723E631E060
:102D200014963C932E9313970E945D221DA60F2E9E
:102D3000F0E0AF2EF0E0BF2EF0E0CF2EF0E0DF2E7F
:102D4000F02D86017501150126010F900F900F904F
:102D50000F90E8A9F9A9A1ADB2ADED91FC91119741
:102D60000280F381E02DCD011995E8A9F9A9A1AD63
:102D7000B2ADED91FC9111970484F585E02DCD0164
:102D8000BE016F5F7F4F1995C201B10129813A8160
:102D90004B815C810E94A14B1B012C01C801B70132
:102DA0002D813E814F8158850E94A14B7B018C0172
:102DB000C601B50129853A854B855C850E94A14BEA
:102DC0005B016C018DA568E20E94304F943149F49B
:102DD0002CA93DA92115310579F081E0F90119955A
:102DE0000BC0992349F48CA99DA9892B29F080E077
:102DF000ACA9BDA9FD01199565E070E080E090E007
:102E0000EAA9FBA91995FDA5FF5FFDA7F83C09F00C
:102E1000A0CFC201B10120E030E048E453E40E94B9
:102E20006E4C1B012C01C801B70120E030E048E4E2
:102E300053E40E946E4C6D8F7E8F8F8F98A3C601D6
:102E4000B50120E030E048E453E40E946E4C698F05
:102E50007A8F8B8F9C8F69A17AA18BA19CA1298DE0
:102E60003A8D4B8D5C8D0E94A04B6D8B7E8B8F8B32
:102E7000988F6DA17EA18FA198A52D8D3E8D4F8D30
:102E800058A10E94A04B698B7A8B8B8B9C8B69A578
:102E90007AA58BA59CA5A20191010E94A04B6D87EC
:102EA0007E878F87988BCE010D960E94C94123960D
:102EB0006FAF239724967FAF249725968FAF2597E2
:102EC00026969FAF26972EA53FA5232B11F5CB0164
:102ED0002596AFAD25972696BFAD26973C014D01AF
:102EE0002EAE3FAE21964FAE219722965FAE22972F
:102EF0003D8D3EAB8E8D8FAB9F8D98AFA8A1A9AFB6
:102F0000B98DBAAFEA8DEBAFFB8DFCAF2C8D2DAF39
:102F1000F9C0CE010D960E94C9412AE037ED43E287
:102F20005DE30E94674C88230CF069C0C201B101C7
:102F300020E030E040E05FE30E944C4E7B018C01DA
:102F400069A57AA58BA59CA520E030E040E05FE371
:102F50000E944C4E9B01AC01C801B7010E94A14BDD
:102F6000A8A9B9A913966D937D938D939C931697F9
:102F70006D8D7E8D8F8D98A120E030E040E05FE385
:102F80000E944C4E7B018C016DA17EA18FA198A562
:102F900020E030E040E05FE30E944C4E9B01AC013A
:102FA000C801B7010E94A14BE8A9F9A967837087FE
:102FB00081879287698D7A8D8B8D9C8D20E030E0A2
:102FC00040E05FE30E944C4E7B018C0169A17AA135
:102FD0008BA19CA120E030E040E05FE30E944C4EDA
:102FE0009B01AC01C801B7010E94A14BA8A9B9A9D6
:102FF0001B966D937D938D939C931E97F4C023969F
:103000006FAD239724967FAD249725968FAD259796
:1030100026969FAD2697A40193010E94674C8823B2
:103020000CF070C0C201B10120E030E040E05FE38D
:103030000E944C4E7B018C016D8D7E8D8F8D98A1F1
:1030400020E030E040E05FE30E944C4E5B016C0109
:10305000698D7A8D8B8D9C8D20E030E040E05FE3C0
:103060000E944C4E3B014C0169A57AA58BA59CA5FD
:1030700020E030E040E05FE30E944C4E9B01AC0159
:10308000C801B7010E94A14B6EAF7FAF21968FAFF1
:10309000219722969FAF22976DA17EA18FA198A51F
:1030A00020E030E040E05FE30E944C4E9B01AC0129
:1030B000C601B5010E94A14B6EAB7FAB88AF99AF43
:1030C00069A17AA18BA19CA120E030E040E05FE300
:1030D0000E944C4E9B01AC01C401B3010E94A14B64
:1030E0006AAF7BAF8CAF9DAF23968FAD23972496AD
:1030F0009FAD24972596AFAD25972696BFAD269711
:103100003C014D01EEA5FFA53196FFA7EEA78D8DE1
:103110009E8DAF8DB8A18DA39EA3AFA3B8A7898DB7
:103120009A8DAB8DBC8D89A39AA3ABA3BCA329A612
:103130003AA64BA65CA63B9709F0D6CDADB7BEB775
:1031400018970FB6F894BEBF0FBEADBF0DB71EB730
:103150000F5F1F4F8FE997E012969C938E93119704
:103160008EE391E0F80193838283C401B30121EEE1
:103170003EE245E652E40E944C4ED80114966D930F
:103180007D938D939C9317970E945D222EAD3FAD4A
:1031900021964FAD219722965FAD2297C901DA01A2
:1031A000E8A9F9A983839483A583B6832EA93FA9AF
:1031B00048AD59ADC901DA0187839087A187B287ED
:1031C0002AAD3BAD4CAD5DADC901DA018387948773
:1031D000A587B6872DB73EB7285F3F4F0FB6F89447
:1031E0003EBF0FBE2DBFCB5BDF4F0FB6F894DEBFE7
:1031F0000FBECDBFCF91DF911F910F91FF90EF9048
:10320000DF90CF90BF90AF909F908F907F906F9006
:103210005F904F903F902F9008954F925F926F92E2
:103220007F928F929F92AF92BF92CF92DF92EF9256
:10323000FF920F931F93CF93DF93EC014B013A0161
:103240002901B801A70196018501A9ADBAADED919B
:10325000FC9111970190F081E02DCD01199598AF67
:103260008FAB8E010D5F1F4F81E08816910421F412
:10327000C8010E94982015C0E881F98104A0F5A139
:10328000E02DCE01B301A2011995E881F98102A0D8
:10329000F3A1E02DCE01B301A2011995C8010E944E
:1032A0000420DF91CF911F910F91FF90EF90DF905D
:1032B000CF90BF90AF909F908F907F906F905F90D6
:1032C0004F900895FC0185E496E09183808360939C
:1032D000F30680E090E0A0E0B0E082839383A483D3
:1032E000B58386839783A087B18782879387A487D6
:1032F000B58786879787A08BB18B828B938BA48BA6
:10330000B58B868B978BA08FB18F828F938FA48F75
:10331000B58F82A18E7F82A308958F929F92AF92E4
:10332000BF92CF92DF92EF92FF920F931F93DF93A2
:10333000CF93CDB7DEB76C970FB6F894DEBF0FBE54
:10334000CDBF4C0180911A0790911B07892BD1F3B7
:10335000F894AE014F5F5F4F20E030E0F901EE0FCF
:10336000FF1FEE0FFF1FE250F94FE080F180028156
:103370001381DA01ED92FD920D931D93AD01108240
:103380001182128213822F5F3F4F2730310531F7B0
:1033900060911A0770911B0710921B0710921A0771
:1033A000789480E090E00E94074D9B01AC0160E0C2
:1033B00070E080E89FE30E946E4C5B016C01E0903E
:1033C000F406F090F5060091F6061091F7066D8967
:1033D0007E898F89988D0E94094D9B01AC01C8019F
:1033E000B7010E944C4EA60195010E944C4EF4017B
:1033F000628373838483958369897A898B899C89A5
:103400000E94094D9B01AC01C801B7010E944C4EBE
:10341000A60195010E944C4ED40116966D937D93A2
:103420008D939C93199717FB109517F91095698D3B
:103430007A8D8B8D9C8D0E94094D9B01AC01C8013A
:10344000B7010E944C4EA60195010E944C4EF4011A
:103450006287738784879587E090F806F090F90675
:103460000091FA061091FB066D817E818F8198850F
:103470000E94094D9B01AC01C801B7010E944C4E4E
:10348000A60195010E944C4ED4011E966D937D932A
:103490008D939C93519769817A818B819C810E9445
:1034A000094D9B01AC01C801B7010E944C4EA60119
:1034B00095010E944C4EF401628B738B848B958B2B
:1034C00017FB109517F9109569857A858B859C8572
:1034D0000E94094D9B01AC01C801B7010E944C4EEE
:1034E000A60195010E944C4ED40156966D937D9392
:1034F0008D939C9359976D857E858F8598890E94C1
:10350000094DA60195010E944C4E0E94DB4C882774
:1035100077FD8095982F0E94094D26E231EC40E41A
:103520005BE30E944C4E20E030E04CE052E40E940D
:10353000A14BF401628F738F848F958F81E06C961D
:103540000FB6F894DEBF0FBECDBFCF91DF911F91B4
:103550000F91FF90EF90DF90CF90BF90AF909F9032
:103560008F90089580911A0790911B0720E0892B76
:1035700009F021E0822F0895FC01228133814481EA
:103580005581B901CA010895FC0126813781408522
:103590005185B901CA010895FC012285338544850E
:1035A0005585B901CA010895CF93DF93FC0182814B
:1035B0009381A481B581EB0188839983AA83BB831E
:1035C00086819781A085B1858C839D83AE83BF83DF
:1035D00082859385A485B585FB0180879187A28725
:1035E000B387DF91CF910895FC0126853785408907
:1035F0005189B901CA010895FC012289338944899E
:103600005589B901CA010895FC0126893789408D81
:10361000518DB901CA010895CF93DF93FC018685CE
:103620009785A089B189EB0188839983AA83BB839D
:1036300082899389A489B5898C839D83AE83BF8356
:1036400086899789A08DB18DFB0180879187A2879C
:10365000B387DF91CF910895CF93DF93FC018281EF
:103660009381A481B581EB0188839983AA83BB836D
:1036700086819781A085B1858C839D83AE83BF832E
:1036800082859385A485B58588879987AA87BB8716
:1036900086859785A089B1898C879D87AE87BF87EE
:1036A00082899389A489B589888B998BAA8BBB8BD6
:1036B00086899789A08DB18DFB01848B958BA68B14
:1036C000B78BDF91CF910895FC01228D338D448D0E
:1036D000558DB901CA01089581E08093FD060895D2
:1036E0006BE572E888E199E308950F931F93182F13
:1036F000062F8091F30660E00E94F5471EBD0DB4D1
:1037000007FEFDCF8EB50EBD0DB407FEFDCF8EB505
:103710008091F30661E00E94F5471F910F91089593
:103720001F93182F10688091F30660E00E94F54700
:103730001EBD0DB407FEFDCF8EB51EBC0DB407FE39
:10374000FDCF1EB58091F30661E00E94F547812F01
:103750001F910895EF92FF920F931F93CF93DF93E2
:10376000EC018B017A018091F30661E00E945B47D6
:103770008091F30661E00E94F54761E070E080E02F
:1037800090E00E946C468BE660E80E94751B64E640
:1037900070E080E090E00E946C468BE663E00E945F
:1037A000751B61E070E080E090E00E946C468AE664
:1037B00060E10E94751B61E070E080E090E00E9493
:1037C0006C4689E164E00E94751B61E070E080E076
:1037D00090E00E946C46CA32D10539F1CB32D10556
:1037E00048F4CA30D10539F1C431D10509F1259722
:1037F00061F524C0CC3BD10591F0CD3BD10520F43F
:10380000C236D10511F50EC081E0C030D80721F0D5
:10381000C453D840D1F415C08AE160E014C08AE1F5
:1038200061E011C08AE162E00EC08AE163E00BC092
:103830008AE164E008C08AE165E005C08AE166E0EB
:1038400002C08AE167E00E94751B61E070E080E0E1
:1038500090E00E946C4681E0043F1807C9F081E0C7
:10386000053F180720F40A3F1105A1F508C083E0C1
:10387000083E1807B1F0005D174061F51BC08BE1F1
:1038800060E00E94751B8DE293E2AAEFBBE31AC0D1
:103890008BE168E00E94751B8DE293E2AAE7BCE32E
:1038A00011C08BE160E10E94751B80E991ECA9EFEA
:1038B000BCE308C08BE168E10E94751B80E991ECD4
:1038C000A9E7BDE38093F4069093F506A093F6066E
:1038D000B093F70661E070E080E090E00E946C46F3
:1038E0008CE00E94901B982F8093FC0684518230BC
:1038F00020F0943511F0953529F48CE168E00E94B0
:10390000751B41C084E0E816F104D9F085E0E816A3
:10391000F10428F482E0E816F104A9F509C088E072
:10392000E816F104B9F080E1E816F10461F51BC076
:103930008CE160E00E94751B80E090E0A0E8B8E3B5
:103940001AC08CE168E00E94751B80E090E0A0E066
:10395000B9E311C08CE160E10E94751B80E090E04A
:10396000A0E8B9E308C08CE168E10E94751B80E023
:1039700090E0A0E0BAE38093F8069093F906A09354
:10398000FA06B093FB0661E070E080E090E00E94F0
:103990006C4688E361E00E94751B61E070E080E0A6
:1039A00090E00E946C4687E360E10E94751B61E035
:1039B00070E080E090E00E946C4661E070E080E0A2
:1039C00090E00E946C4686E06CE67BE143E050E0CC
:1039D0000E94243CDF91CF911F910F91FF90EF90B7
:1039E0000895CF92DF92EF92FF920F931F93CF93A0
:1039F000DF93FC01EB017A01690182A180FD1EC009
:103A0000816082A3E881F9810480F581E02DCB01FA
:103A10001995C701B601A8010E94AA1BE881F98186
:103A20000680F781E02DCE011995E881F98101909A
:103A3000F081E02DCE016AE27DE119958091FC06CE
:103A400090E0DF91CF911F910F91FF90EF90DF9069
:103A5000CF900895CF93DF938091FD06882309F4DA
:103A60005EC01092FD068091F30660E00E94F5476B
:103A70008BEB8EBD0DB407FEFDCF8EB560E070E020
:103A8000FB01EE0FFF1FEE0FFF1FE250F94F2081E9
:103A90003181428153811EBC0DB407FEFDCF9EB51E
:103AA0001EBC0DB407FEFDCF8EB5D92FC0E090E04F
:103AB0008C2B9D2BAA2797FDA095BA2F280F391F75
:103AC0004A1F5B1FAEEFB6E0FB01EE0FFF1FEE0FCC
:103AD000FF1FEA0FFB1F20833183428353836F5FF5
:103AE0007F4F6730710561F680911A0790911B072F
:103AF000019690931B0780931A0780911A07909163
:103B00001B07892B39F4CD0160E070E04CE150E0F7
:103B10000E94FC038091F30661E00E94F547DF916B
:103B2000CF9108950F931F938C010E944646F80190
:103B3000668F778F80A391A31F910F910895CF92E5
:103B4000DF92EF92FF920F931F936C010E94464603
:103B50007B018C01F601868D978DA0A1B1A1E81A99
:103B6000F90A0A0B1B0B0190F081E02D048CF58DF6
:103B7000E02DC6011995B701C8011F910F91FF9063
:103B8000EF90DF90CF900895EF92FF920F931F93E5
:103B90000E94B94E7B018C019701A8010E94064F3B
:103BA000882321F0EE24FF2400E010E0B701C801D3
:103BB0001F910F91FF90EF900895FC0118C0F999A3
:103BC000FECF72BD61BDF89A80B59081891759F01A
:103BD000F999FECF1FBA72BD61BD90BD0FB6F894C2
:103BE000FA9AF99A0FBE31966F5F7F4F4150442386
:103BF00031F70895DF93CF9300D0CDB7DEB7BC0186
:103C00008FEF8B8389838A83CE01019643E00E94E4
:103C1000DD1D0F900F900F90CF91DF9108952F929F
:103C20003F924F925F926F927F928F929F92AF924C
:103C3000BF92CF92DF92EF92FF920F931F93DF9389
:103C4000CF93CDB7DEB72C970FB6F894DEBF0FBE7B
:103C5000CDBF8E839F837C836B834D83122F202E59
:103C600047013601BC86AB8685E1489F20011124BF
:103C7000E0911F07F0912007E40DF51D71968591E5
:103C800094919A8389833324A02FB0E0B987A887C1
:103C9000B02FBC5FBA8777C09D012F5E3F4FF901FF
:103CA00085919491683029F5CD014396FC01659189
:103CB00074918885998504970CF072C01196FD0166
:103CC000849190E0088402C0880F991F0A94E2F75B
:103CD000212F280F8E819F814D810A8574016301F8
:103CE000AB84BC840E940F1E9C01009709F44AC05B
:103CF00059C02E813F8149815A81480F591F24178D
:103D00003507A1F41196FD018491119790E002C04E
:103D1000880F991F2A94E2F7180FF4011083F3011A
:103D2000B183A083AB85BC851C9225C0653051F55D
:103D3000CA0104968217930729F0CA0108968217D0
:103D4000930701F5241B350B369527953695279556
:103D5000EB85FC8520831196FD018491119790E0FD
:103D600002C0880F991F2A94E2F7180FF4011083FC
:103D7000F301B183A08320911F0730912007240D08
:103D8000351D10C03394F5E13F9ED00111248B8185
:103D90009C81A80FB91FFD016491662309F07CCFB7
:103DA00020E030E0C9012C960FB6F894DEBF0FBEBC
:103DB000CDBFCF91DF911F910F91FF90EF90DF90DA
:103DC000CF90BF90AF909F908F907F906F905F90BB
:103DD0004F903F902F9008953F924F925F926F9235
:103DE0007F928F929F92AF92BF92CF92DF92EF928B
:103DF000FF920F931F93CF93DF932C014B013A0156
:103E0000E90110E025E1322E4EC0139DB0011124CE
:103E100020911F0730912007260F371FF901A49129
:103E2000C9014196FC0145915491A83089F4F901EA
:103E3000739665917491C201412F20E000E07401F6
:103E400063015E010E940F1E9C01009759F132C070
:103E500092014415550539F4F4011082F3011182E1
:103E60001082188218C0A530E9F4CA01049684159E
:103E7000950529F0CA0108968415950599F4241B27
:103E8000350B36952795369527952883F4011082B2
:103E9000F3011182108220911F0730912007260F15
:103EA000371F08C01F5F80911E07181708F4ADCF99
:103EB00020E030E0C901DF91CF911F910F91FF9079
:103EC000EF90DF90CF90BF90AF909F908F907F90BA
:103ED0006F905F904F903F900895853091054CF41E
:103EE00083309105DCF48130910561F0029761F433
:103EF0000DC08630910571F0863091054CF0079722
:103F000019F40AC081E0089580E0089582E00895E0
:103F10008CE0089588E1089584E2089584E008958E
:103F20006F927F928F929F92AF92BF92CF92DF92C9
:103F3000EF92FF920F931F93DF93CF9300D0CDB7F3
:103F4000DEB77B016A01A0901C07B0901D0704E05A
:103F500010E03E010894611C711C74E0872E912CC6
:103F60008C0E9D1E35C09801F30109C0F999FECF52
:103F700032BD21BDF89A80B581932F5F3F4FE81580
:103F8000F905A1F72B81F7018281281769F499813E
:103F90008081981749F49A818181981729F4F60154
:103FA0001183008381E01EC02F3F31F089818F3F54
:103FB00019F08A818F3F21F4F6011183008311C02B
:103FC000822F90E00E946D1F90E00396080F191F4A
:103FD0000A151B0508F4C7CF8FEF9FEFF6019183F9
:103FE000808380E00F900F900F90CF91DF911F9111
:103FF0000F91FF90EF90DF90CF90BF90AF909F9088
:104000008F907F906F900895CF92DF92EF92FF9202
:104010000F931F93DF93CF93CDB7DEB729970FB6DA
:10402000F894DEBF0FBECDBF8C011982BE016F5F59
:104030007F4FAE014D5F5F4F9E012E5F3F4F0E944D
:10404000EC1E9C01009709F463C08B819C81009752
:1040500019F0FC01849102C0F90184918987205FE5
:104060003F4FF901349129818985853021F08A817A
:10407000882309F04DC08A81882311F4780108C093
:1040800090E0880F991F880F991F7801E81AF90AA4
:1040900028873F83E7E0CE2ED12CCC0EDD1EC80151
:1040A000B601AE014B5F5F4F0E94901F0D811E81D4
:1040B000882351F0898590E00E946D1F482F0D5F85
:1040C0001F4FC701B80120C0FFEF0F3F1F0701F1CD
:1040D000898590E00E946D1F0D5F1F4F9801280F8A
:1040E000311DC9010E94FA1D898590E00E946D1F53
:1040F000482F6D817E816D5F7F4FC7010E94DD1D5E
:104100006D817E81C60143E00E94DD1D81E001C01A
:1041100080E029960FB6F894DEBF0FBECDBFCF91D9
:10412000DF911F910F91FF90EF90DF90CF90089556
:104130000F931F93DF93CF93CDB7DEB729970FB6B9
:10414000F894DEBF0FBECDBF8C011982BE016F5F38
:104150007F4FAE014D5F5F4F9E012E5F3F4F0E942C
:10416000EC1E9C01009709F448C08B819C8100974C
:1041700019F0FC01849102C0F90184918987205FC4
:104180003F4FF90184918F8389818887C801BE01DF
:10419000695F7F4FAE014B5F5F4F0E94901F882386
:1041A00061F12985253019F08A81882331F58A81CA
:1041B000882339F090E0880F991F880F991F081BFA
:1041C000190B822F90E00E946D1F482F50E0F801DC
:1041D0002D813E812D5F3F4F0BC0F999FECF32BD3F
:1041E00021BDF89A80B581932F5F3F4F41505040D9
:1041F0004115510591F781E001C080E029960FB685
:10420000F894DEBF0FBECDBFCF91DF911F910F910C
:104210000895FC0189E696E09183808360932107ED
:10422000089530912D07E2E2F7E020E006C0819189
:1042300091918617970791F02F5F2317C0F3F89499
:10424000343058F4E32FF0E0EE0FFF1FEE5DF84F2F
:10425000718360833F5F30932D0778940895709346
:104260002B0760932A07089581E080932E07089515
:1042700010922E070895CF92DF92EF92FF920F9344
:104280001F93CF93DF93809121078093B20078949E
:104290000E9446466B017C0180912C07882351F0D7
:1042A000E0912A07F0912B07309761F1C701B60121
:1042B000199528C081E080932C0780912E078823D0
:1042C000B1F402E217E0C0E0D0E00BC0D801ED91FC
:1042D000FC91309719F0C701B601199521960E5F30
:1042E0001F4F80912D0790E0C817D9077CF3E0910C
:1042F0002A07F0912B07309719F0C701B6011995DD
:1043000010922C07DF91CF911F910F91FF90EF90AA
:10431000DF90CF900895CB01E0E7F0E0108210929B
:10432000B00026E02093B1001092B20021E027BB3C
:10433000208310922B0710922A0710922E071092BA
:104340002C07109223071092220710922507109233
:10435000240710922707109226071092290710921F
:10436000280760E070E04BE351E20E94C521089508
:104370001092300710922F071092320710923107D7
:1043800010923407109233070895FB0163307105D2
:1043900018F02FEF3FEF08C0EE0FFF1FE15DF84F61
:1043A0005183408320E030E0C90108951F920F92AD
:1043B0000FB60F920BB60F9211242F933F934F938A
:1043C0005F936F937F938F939F93AF93BF93EF937D
:1043D000FF93E0912F07F0913007309709F019957E
:1043E000FF91EF91BF91AF919F918F917F916F91CD
:1043F0005F914F913F912F910F900BBE0F900FBE89
:104400000F901F9018951F920F920FB60F920BB638
:104410000F9211242F933F934F935F936F937F934A
:104420008F939F93AF93BF93EF93FF93E0913107E7
:10443000F0913207309709F01995FF91EF91BF91F4
:10444000AF919F918F917F916F915F914F913F912C
:104450002F910F900BBE0F900FBE0F901F901895CD
:104460001F920F920FB60F920BB60F9211242F933B
:104470003F934F935F936F937F938F939F93AF93EC
:10448000BF93EF93FF93E0913307F0913407309798
:1044900009F01995FF91EF91BF91AF919F918F9185
:1044A0007F916F915F914F913F912F910F900BBE34
:1044B0000F900FBE0F901F901895DF93CF93CDB73D
:1044C000DEB7FE013A968E819F8161E0488559856D
:1044D0009F010E94CF41CF91DF910895FC0185E7B4
:1044E00096E09183808313821282108A178680E07F
:1044F00090E0A0E0B0E0818F928FA38FB48F858B86
:10450000968BA78BB08F818B928BA38BB48B858F6F
:10451000968FA78FB0A381E081A382A383A314A267
:10452000B69680E090E01582148213821282118286
:1045300010820696369688379105A9F7089581E08E
:104540000895FC01708B67870895DF93CF93CDB7F3
:10455000DEB72C970FB6F894DEBF0FBECDBFAC010F
:10456000DE011196FB018CE001900D928150E1F784
:10457000DA015196FE0131968CE001900D92815046
:10458000E1F72C960FB6F894DEBF0FBECDBFCF91EA
:10459000DF9108959C012F5E3F4FC90108952F922E
:1045A0003F924F925F926F927F928F929F92AF92C3
:1045B000BF92CF92DF92EF92FF920F931F93DF9300
:1045C000CF93CDB7DEB762970FB6F894DEBF0FBEBC
:1045D000CDBF9A8B898B8B01DB0158962D913D9134
:1045E0004D915C915B97CA01B9010E944C4E9B01B1
:1045F000AC0160E070E080E89FE30E94A04B0E9465
:10460000C41D6D837E838F83988720E030E040E077
:1046100050E00E94674C882359F40F2EF0E0EF2EF3
:10462000F0E0FF2EF0E00F2FF0E01F2FF02D17C16C
:10463000E989FA8966817781882777FD8095982FA7
:104640000E94094D3B014C01D8015C962D903D9094
:104650004D905C905F9758968D919D910D90BC9177
:10466000A02D89839A83AB83BC83E989FA8960850D
:104670007185882777FD8095982F0E94094D6D8759
:104680007E878F87988BD80190968D919D910D9004
:10469000BC91A02D89879A87AB87BC87C401B301E1
:1046A00029853A854B855C850E944C4E2D813E8143
:1046B0004F8158850E946E4C7B018C016D857E85F3
:1046C0008F859889A20191010E944C4E2D813E81D7
:1046D0004F8158850E946E4C9B01AC01C801B70107
:1046E0000E94A04B7B018C0117FB109517F91095C8
:1046F000E989FA8964817581882777FD8095982FEB
:104700000E94094D2D813E814F8158850E944C4E5B
:104710005B016C01C401B301A20191010E944C4EE6
:1047200029813A814B815C810E944C4E2D813E81D2
:104730004F8158850E946E4C9B01AC01C601B501AA
:104740000E94A04B5B016C016D857E858F859889E9
:1047500029853A854B855C850E944C4E29813A819A
:104760004B815C810E944C4E2D813E814F8158854A
:104770000E946E4C9B01AC01C601B5010E94A04B8A
:104780009B01AC01C801B7010E94144C7B018C0154
:104790002AE939E949E450EC0E94674C88235CF42B
:1047A0000F2EFAE9EF2EF9E9FF2EF9E40F2FF0ECC6
:1047B0001F2FF02D14C0C801B7012AE939E949E4D7
:1047C00050E40E94414E181654F40F2EFAE9EF2ED1
:1047D000F9E9FF2EF9E40F2FF0E41F2FF02DA9893E
:1047E000BA895D96AD90BD90CD90DC909097C60152
:1047F000B5019F7720E030E040E050E00E94414E5C
:1048000018166CF5C801B701A60195010E94A14BCD
:104810007B018C012BED3FE049E450E40E94414EC6
:1048200018164CF4C801B7012BED3FE049EC50E4F9
:104830000E94A04B12C0C801B7012BED3FE049E434
:1048400050EC0E94674C882354F4C801B7012BED4B
:104850003FE049EC50E40E94A14B7B018C01B70181
:10486000C80162960FB6F894DEBF0FBECDBFCF91E0
:10487000DF911F910F91FF90EF90DF90CF90BF904D
:10488000AF909F908F907F906F905F904F903F90F0
:104890002F9008952F923F924F925F926F927F9246
:1048A0008F929F92AF92BF92CF92DF92EF92FF9240
:1048B0000F931F93DF93CF93CDB7DEB762970FB6F9
:1048C000F894DEBF0FBECDBF9A8B898B6A017B0146
:1048D00048015901CB01BA010E946B4C6D877E875C
:1048E0008F87988BC701B6010E94AF4E69877A8780
:1048F0008B879C87C501B4010E946B4C6D837E83BE
:104900008F839887C501B4010E94AF4E69837A8373
:104910008B839C83E989FA8966817781882777FD73
:104920008095982F0E94094D3B014C01E989FA8935
:1049300060857185882777FD8095982F0E94094DA5
:104940001B012C01C401B3012D853E854F8558897B
:104950000E944C4E7B018C01C201B10129853A8530
:104960004B855C850E944C4E9B01AC01C801B70190
:104970000E94A04B7B018C0117FB109517F9109535
:10498000E989FA8964817581882777FD8095982F58
:104990000E94094D2D813E814F8158850E944C4EC9
:1049A0005B016C01C401B30129853A854B855C85A7
:1049B0000E944C4E29813A814B815C810E944C4E71
:1049C0009B01AC01C601B5010E94A14B5B016C01CA
:1049D000C201B1012D853E854F8558890E944C4EFC
:1049E00029813A814B815C810E944C4E9B01AC0134
:1049F000C601B5010E94A14B9B01AC01C801B701E2
:104A00000E94144C7B018C01E989FA89A58CB68C33
:104A1000C78CD0A0C601B5019F7720E030E040E010
:104A200050E00E94414E18166CF5C801B701A6016E
:104A300095010E94A14B7B018C012BED3FE049E4E5
:104A400050E40E94414E18164CF4C801B7012BEDFA
:104A50003FE049EC50E40E94A04B12C0C801B701EE
:104A60002BED3FE049E450EC0E94674C882354F45E
:104A7000C801B7012BED3FE049EC50E40E94A14B87
:104A80007B018C01B701C80162960FB6F894DEBFB6
:104A90000FBECDBFCF91DF911F910F91FF90EF908F
:104AA000DF90CF90BF90AF909F908F907F906F904E
:104AB0005F904F903F902F900895FC01458F568F47
:104AC000678F70A34D960E940420089541960E941E
:104AD000042008950F931F938C0181E0D801129652
:104AE0008C93129784E090E015969C938E93149784
:104AF00019967C936E9318971C961C921C97ED91B7
:104B0000FC910190F081E02DC8011995D801ED913B
:104B1000FC9111971E962C911E970280F381E02D37
:104B2000C80112966C9140E050E01995D801ED91C2
:104B3000FC9111970280F381E02DC80112966C91CF
:104B4000129741E050E01D962C911995D801ED91F6
:104B5000FC91119750962C9150970280F381E02D93
:104B6000C80112966C9142E050E01995D801ED9180
:104B7000FC9111970280F381E02DC80112966C918F
:104B8000129743E050E01F962C9119951F910F91B9
:104B90000895CF93DF93EC011D821C82E881F98197
:104BA000488559850480F581E02D6A8120E01995BA
:104BB000888599850196998788872E893F89281746
:104BC000390710F481E08C878A81813011F482E00A
:104BD00001C081E08A83DF91CF910895CF93DF9365
:104BE000EC01262F8C85882309F069C0E881F981C2
:104BF0004C815D810280F381E02DCE016A8119959F
:104C00008C819D8101969D838C832C893D8982179F
:104C1000930708F454C084E090E09D838C83E8817E
:104C2000F981488559850480F581E02DCE016A819E
:104C300020E01995888599850196998788872E891E
:104C40003F892817390710F481E08C878A818130E9
:104C500011F482E001C081E08A83E881F9812E8528
:104C60000280F381E02DCE016A8140E050E0199589
:104C7000E881F9810280F381E02DCE016A8141E073
:104C800050E02D8519952F8538892F5F3F4F388B40
:104C90002F87E881F9810280F381E02DCE016A81BE
:104CA00042E050E0232F1995E881F9810280F381D9
:104CB000E02DCE016A8143E050E02F851995DF9108
:104CC000CF910895CF92DF92EF92FF920F931F93AF
:104CD0006C017A018B01272F552727FD5095352F21
:104CE000452F622F0E94EE259801552737FD5095DC
:104CF000452FC601622F0E94EE25552717FD5A95B4
:104D0000412F302F2F2DC601622F0E94EE25C601A4
:104D10006E2D0E94EE251F910F91FF90EF90DF9076
:104D2000CF900895FF920F931F938C0181E0D801DB
:104D300013968C93139784E090E017969C938E9330
:104D400016971B967C936E931A97ED91FC910190A8
:104D5000F081E02DC8011995D801ED91FC911197D2
:104D60001A964D915C911B970680F781E02DC80142
:104D700013966C911995F801828593850196938716
:104D800082870190F081E02D0084F185E02DC8013B
:104D9000D80113966C9140E050E01995F82EF80177
:104DA000858716860190F081E02D0084F185E02D45
:104DB000C801D80113966C9141E050E019953F2D40
:104DC00020E090E0282B392BF801368725870190C9
:104DD000F081E02D0084F185E02DC801D801139603
:104DE0006C9142E050E01995F82EF8018787108AFF
:104DF0000190F081E02D0084F185E02DC801D801FB
:104E000013966C9143E050E019953F2D20E090E01F
:104E1000282B392BF801308B27871F910F91FF909A
:104E200008950F931F93CF93DF93EC01E881F981ED
:104E30000190F081E02D1995E881F9814E815F8123
:104E40000084F185E02DCE016B811995082F8E81AC
:104E50009F8101969F838E832C893D8982179307BA
:104E600008F456C084E090E09F838E83E881F98146
:104E70004A855B850680F781E02DCE016B8119950F
:104E80008A859B8501969B878A872E893F8928176B
:104E9000390710F41B861A86E881F9810084F185B0
:104EA000E02DCE016B8140E050E01995182F8D87E1
:104EB0001E86E881F9810084F185E02DCE016B81A9
:104EC00041E050E01995312F20E090E0282B392B5C
:104ED0003E872D87E881F9810084F185E02DCE01A0
:104EE0006B8142E050E01995182F8F87188AE8816E
:104EF000F9810084F185E02DCE016B8143E050E023
:104F00001995312F20E090E0282B392B388B2F87F3
:104F1000802FDF91CF911F910F910895CF92DF9253
:104F2000EF92FF920F931F936C010E941127E82EBE
:104F3000FF2400E010E0102F0F2DFE2CEE24C60100
:104F40000E94112790E0A0E0B0E0E82AF92A0A2B9D
:104F50001B2B102F0F2DFE2CEE24C6010E941127B3
:104F600090E0A0E0B0E0E82AF92A0A2B1B2B102FD2
:104F70000F2DFE2CEE24C6010E941127282F30E0B1
:104F800040E050E02E293F29402B512BB901CA01A6
:104F90001F910F91FF90EF90DF90CF9008950F93A6
:104FA0001F93DF93CF9300D00F92CDB7DEB78C0164
:104FB0000E9411278983C8010E9411278A83C80192
:104FC0000E9411278B83C8010E94112729813A81F1
:104FD0004B81582FB901CA010F900F900F900F907D
:104FE000CF91DF911F910F910895EF92FF920F9350
:104FF0001F93CF93DF93EC017B016E897F896F5FF5
:105000007F4F0E946A25CE0142E150E262E178E2E0
:105010000E946226E881F981488559850480F581DE
:10502000E02DCE016A8121E01995E881F98106849D
:10503000F785E02DCE01B70119958FEF9FEF9E8781
:105040008D8781E090E0988B8F87CE0160E070E0E3
:105050000E9492266E897F896F5F7F4FCE010E94EA
:105060009226CE010E948E2701E010E010C0E88158
:10507000F9810484F585E02DCE01B801199561E030
:1050800070E080E090E0F70119950F5F1F4F6E8987
:105090007F896F5F7F4FCB01E3E096958795EA9517
:1050A000E1F78017910718F7CE010E946A25CE011B
:1050B00041E150E262E178E20E946226CE010E9464
:1050C000C925DF91CF911F910F91FF90EF90089527
:1050D000FC018BE896E0918380830895FC0186892A
:1050E00097898F5F9F4010F420E007C081E20E9403
:1050F000284820E0892B09F421E0822F08958CE1D3
:1051000060E00E94F54708958CE161E00E94F54758
:105110000895FF920F931F93CF93DF93EC01162F07
:10512000F42E052F0E947F28113061F48091300108
:1051300085FFFCCF84ED809336018091300187FF9D
:10514000FCCF0BC08091300185FFFCCF86ED8093B2
:1051500036018091300187FFFCCF8091360180912C
:10516000300185FFFCCF109236018091300187FF1E
:10517000FCCF809136018091300185FFFCCF0093F8
:1051800036018091300187FFFCCF809136018091FC
:10519000300185FFFCCFF09236018091300187FF0E
:1051A000FCCF809136018091300185FFFCCF1092B9
:1051B00036018091300187FFFCCF809136018091CC
:1051C000300185FFFCCF109236018091300187FFBE
:1051D000FCCF10913601CE010E948428812FDF91EF
:1051E000CF911F910F91FF900895EF92FF920F932F
:1051F0001F93CF93DF93EC01162FF42E052FE22E91
:105200000E947F28113061F48091300185FFFCCF2E
:1052100084E8809336018091300187FFFCCF0BC07A
:105220008091300185FFFCCF87E880933601809123
:10523000300187FFFCCF809136018091300185FFDE
:10524000FCCF109236018091300187FFFCCF809116
:1052500036018091300185FFFCCF009336018091AB
:10526000300187FFFCCF809136018091300185FFAE
:10527000FCCFF09236018091300187FFFCCF809106
:1052800036018091300185FFFCCFE092360180919C
:10529000300187FFFCCF80913601CE010E94842827
:1052A000DF91CF911F910F91FF90EF9008951F9381
:1052B000CF93DF93EC010E947F288091300185FF1E
:1052C000FCCF87ED809336018091300187FFFCCFC2
:1052D000809136018091300185FFFCCF109236011C
:1052E0008091300187FFFCCF10913601CE010E94E2
:1052F0008428812FDF91CF911F910895CF93DF9361
:10530000EC01CE010E94572987FFFBCFDF91CF919F
:1053100008950F931F93CF93DF93EC018B010E94AD
:105320007F288091300185FFFCCF87EC8093360188
:105330008091300187FFFCCF809136018091300150
:1053400085FFFCCF84E9809336018091300187FF8F
:10535000FCCF809136018091300185FFFCCF80E841
:10536000809336018091300187FFFCCF8091360118
:105370008091300185FFFCCF8AE9809336018091CE
:10538000300187FFFCCF80913601CE010E94842836
:10539000CE010E947F2806C061E070E080E090E0CE
:1053A000F8011995CE010E94572987FFF5CFCE014C
:1053B0000E948428DF91CF911F910F9108950F9340
:1053C0001F93CF93DF938C01EB010E947F28809184
:1053D000300185FFFCCF80E580933601809130015C
:1053E00087FFFCCF80913601F80184899589805030
:1053F000924009F58091300185FFFCCFCE0133E06A
:10540000969587953A95E1F7809336018091300122
:1054100087FFFCCF809136018091300185FFFCCF62
:105420009E012295220F207E20933601809130012B
:1054300087FFFCCF1FC08091300185FFFCCFCE01DC
:1054400024E0969587952A95E1F78093360180911F
:10545000300187FFFCCF809136018091300185FFBC
:10546000FCCFFE01E295E07FE093360180913001B0
:1054700087FFFCCF809136018091300185FFFCCF02
:10548000109236018091300187FFFCCF8091360168
:10549000C8010E948428C8010E947F28C8010E9478
:1054A000572987FFFBCFC8010E948428DF91CF9145
:1054B0001F910F9108950F931F93CF93DF938C014A
:1054C000EB010E947F288091300185FFFCCF81E8AD
:1054D000809336018091300187FFFCCF80913601A7
:1054E000F8018489958980509240F9F480913001C7
:1054F00085FFFCCFCE01880F892F881F990B9195CE
:10550000809336018091300187FFFCCF8091360176
:105510008091300185FFFCCF9E01220F2093360140
:105520008091300187FFFCCF1FC08091300185FF43
:10553000FCCFCE0146E0969587954A95E1F780939A
:1055400036018091300187FFFCCF80913601809138
:10555000300185FFFCCFFE01EE0FEE0FE093360128
:105560008091300187FFFCCF80913601809130011E
:1055700085FFFCCF109236018091300187FFFCCF70
:1055800080913601C8010E948428C8010E947F28AA
:10559000C8010E94572987FFFBCFC8010E948428B9
:1055A000DF91CF911F910F910895EF92FF920F938A
:1055B0001F93CF93DF937C01162FEA01022F0E94E5
:1055C0007F28113061F48091300185FFFCCF83E8A2
:1055D000809336018091300187FFFCCF0BC0809112
:1055E000300185FFFCCF86E8809336018091300141
:1055F00087FFFCCF80913601F7018489958980501F
:105600009240F9F48091300185FFFCCFCE01880FE4
:10561000892F881F990B91958093360180913001D5
:1056200087FFFCCF809136018091300185FFFCCF50
:105630009E01220F209336018091300187FFFCCF1D
:105640001FC08091300185FFFCCFCE0166E09695AA
:1056500087956A95E1F7809336018091300187FF45
:10566000FCCF809136018091300185FFFCCFFE0197
:10567000EE0FEE0FE09336018091300187FFFCCFF3
:10568000809136018091300185FFFCCF1092360168
:105690008091300187FFFCCF80913601C7010E94C5
:1056A0008428C7010E947F28002329F0C7010E9497
:1056B000572987FFFBCFC7010E948428DF91CF9134
:1056C0001F910F91FF90EF900895EF92FF921F931B
:1056D000CF93DF937C01162FEA010E947F281130BF
:1056E00061F48091300185FFFCCF83E58093360122
:1056F0008091300187FFFCCF0BC08091300185FF86
:10570000FCCF85E5809336018091300187FFFCCF87
:1057100080913601F7018489958980509240F9F48F
:105720008091300185FFFCCFCE01880F892F881F23
:10573000990B9195809336018091300187FFFCCFC2
:10574000809136018091300185FFFCCF9E01220FB0
:10575000209336018091300187FFFCCF1FC08091DC
:10576000300185FFFCCFCE01E6E096958795EA955E
:10577000E1F7809336018091300187FFFCCF809163
:1057800036018091300185FFFCCFFE01EE0FEE0F58
:10579000E09336018091300187FFFCCF8091360184
:1057A0008091300185FFFCCF10923601809130014D
:1057B00087FFFCCF80913601C7010E948428C70172
:1057C0000E947F28C7010E94572987FFFBCFC7018E
:1057D0000E948428DF91CF911F91FF90EF90089550
:1057E000CF93DF93EC010E947F288091300185FFE9
:1057F000FCCF8FE9809336018091300187FFFCCF89
:10580000809136018091300185FFFCCF8FEF80932E
:1058100036018091300187FFFCCF80913601898B62
:105820008091300185FFFCCF8FEF8093360180910E
:10583000300187FFFCCF309136018091300185FF28
:10584000FCCF8FEF809336018091300187FFFCCF32
:1058500020913601932F80E030E0822B932B9B8B9D
:105860008A8B8091300185FFFCCF8FEF80933601CA
:105870008091300187FFFCCF80913601CE010E94DC
:105880008428DF91CF910895CF93DF93EC018EE0D0
:1058900061E00E945B478FE060E00E945B478CE123
:1058A00061E00E945B4789E261E00E945B4781E220
:1058B00060E00E945B4789E260E00E94F54761E09A
:1058C00070E080E090E00E946C4689E261E00E9416
:1058D000F547CE010E9484281092350110923401C0
:1058E0008091040184608093040180EC80933201F4
:1058F00088E1809331011092350110923401CE017C
:105900000E94572990E081709070A4E0880F991F41
:10591000AA95E1F720E132E0281B390B3D8B2C8B57
:10592000E881F9810288F389E02DCE0119958B89F0
:105930008F71873019F48FEF9FE104C0863029F40E
:105940008FEF9FE09F8B8E8B02C01F8A1E8ADF9194
:10595000CF910895089521E0FC01208F0895FC0166
:10596000108E08956F927F928F929F92AF92BF9206
:10597000CF92DF92EF92FF920F931F93CF93DF931B
:10598000B62EA72EEA0138014901760148815981D6
:105990006A817B818B2D9A2D96010E941F3711E021
:1059A00017C08B2D9A2D6CE20E949235E12FF0E00A
:1059B000EE0FFF1FEE0FFF1FEC0FFD1F4081518107
:1059C000628173818B2D9A2D97010E941F371F5F73
:1059D000812F90E0A0E0B0E086159705A805B905F5
:1059E00004F38B2D9A2D6BE272E00E942237DF9137
:1059F000CF911F910F91FF90EF90DF90CF90BF90CC
:105A0000AF909F908F907F906F9008956F927F924C
:105A10008F929F92AF92BF92CF92DF92EF92FF92BE
:105A20000F931F934C01662E742E58016901EE24CA
:105A3000FF24870116C0C4010E9411270894E11CAD
:105A4000F11C011D111D861561F4C4010E9411276E
:105A5000871511F481E00BC00894E11CF11C011DB5
:105A6000111DEA14FB040C051D052CF380E01F91A9
:105A70000F91FF90EF90DF90CF90BF90AF909F90ED
:105A80008F907F906F900895FF920F931F93182F20
:105A9000092F61E070E00E949226812F902F0E94D2
:105AA0001127F82E812F902F0E941127982F80E325
:105AB000F81611F080E004C080E0993209F481E02A
:105AC0001F910F91FF9008952F923F924F925F92F6
:105AD0006F927F928F929F92AF92BF92CF92DF92FE
